{
  "_format": "hh-sol-artifact-1",
  "contractName": "zkVault",
  "sourceName": "contracts/zkVault.sol",
  "abi": [
    {
      "inputs": [],
      "stateMutability": "nonpayable",
      "type": "constructor"
    },
    {
      "anonymous": false,
      "inputs": [
        {
          "indexed": false,
          "internalType": "address",
          "name": "_soul",
          "type": "address"
        }
      ],
      "name": "Burn",
      "type": "event"
    },
    {
      "anonymous": false,
      "inputs": [
        {
          "indexed": false,
          "internalType": "address",
          "name": "_soul",
          "type": "address"
        }
      ],
      "name": "Mint",
      "type": "event"
    },
    {
      "anonymous": false,
      "inputs": [
        {
          "indexed": true,
          "internalType": "address",
          "name": "previousOwner",
          "type": "address"
        },
        {
          "indexed": true,
          "internalType": "address",
          "name": "newOwner",
          "type": "address"
        }
      ],
      "name": "OwnershipTransferred",
      "type": "event"
    },
    {
      "anonymous": false,
      "inputs": [
        {
          "indexed": false,
          "internalType": "address",
          "name": "_soul",
          "type": "address"
        }
      ],
      "name": "Update",
      "type": "event"
    },
    {
      "inputs": [],
      "name": "_name",
      "outputs": [
        {
          "internalType": "string",
          "name": "",
          "type": "string"
        }
      ],
      "stateMutability": "view",
      "type": "function"
    },
    {
      "inputs": [],
      "name": "_symbol",
      "outputs": [
        {
          "internalType": "string",
          "name": "",
          "type": "string"
        }
      ],
      "stateMutability": "view",
      "type": "function"
    },
    {
      "inputs": [],
      "name": "_totalSBT",
      "outputs": [
        {
          "internalType": "uint256",
          "name": "",
          "type": "uint256"
        }
      ],
      "stateMutability": "view",
      "type": "function"
    },
    {
      "inputs": [
        {
          "internalType": "address",
          "name": "_soul",
          "type": "address"
        }
      ],
      "name": "burn",
      "outputs": [],
      "stateMutability": "nonpayable",
      "type": "function"
    },
    {
      "inputs": [
        {
          "internalType": "address",
          "name": "_soul",
          "type": "address"
        }
      ],
      "name": "getSBTData",
      "outputs": [
        {
          "internalType": "uint256[2]",
          "name": "",
          "type": "uint256[2]"
        },
        {
          "internalType": "uint256[2][2]",
          "name": "",
          "type": "uint256[2][2]"
        },
        {
          "internalType": "uint256[2]",
          "name": "",
          "type": "uint256[2]"
        },
        {
          "internalType": "uint256[2]",
          "name": "",
          "type": "uint256[2]"
        }
      ],
      "stateMutability": "view",
      "type": "function"
    },
    {
      "inputs": [
        {
          "internalType": "address",
          "name": "_soul",
          "type": "address"
        }
      ],
      "name": "hasSoul",
      "outputs": [
        {
          "internalType": "bool",
          "name": "",
          "type": "bool"
        }
      ],
      "stateMutability": "view",
      "type": "function"
    },
    {
      "inputs": [
        {
          "internalType": "uint256[2]",
          "name": "a",
          "type": "uint256[2]"
        },
        {
          "internalType": "uint256[2][2]",
          "name": "b",
          "type": "uint256[2][2]"
        },
        {
          "internalType": "uint256[2]",
          "name": "c",
          "type": "uint256[2]"
        },
        {
          "internalType": "uint256[2]",
          "name": "input",
          "type": "uint256[2]"
        }
      ],
      "name": "mint",
      "outputs": [],
      "stateMutability": "nonpayable",
      "type": "function"
    },
    {
      "inputs": [],
      "name": "name",
      "outputs": [
        {
          "internalType": "string",
          "name": "",
          "type": "string"
        }
      ],
      "stateMutability": "view",
      "type": "function"
    },
    {
      "inputs": [],
      "name": "owner",
      "outputs": [
        {
          "internalType": "address",
          "name": "",
          "type": "address"
        }
      ],
      "stateMutability": "view",
      "type": "function"
    },
    {
      "inputs": [],
      "name": "renounceOwnership",
      "outputs": [],
      "stateMutability": "nonpayable",
      "type": "function"
    },
    {
      "inputs": [],
      "name": "symbol",
      "outputs": [
        {
          "internalType": "string",
          "name": "",
          "type": "string"
        }
      ],
      "stateMutability": "view",
      "type": "function"
    },
    {
      "inputs": [],
      "name": "totalSBT",
      "outputs": [
        {
          "internalType": "uint256",
          "name": "",
          "type": "uint256"
        }
      ],
      "stateMutability": "view",
      "type": "function"
    },
    {
      "inputs": [
        {
          "internalType": "address",
          "name": "newOwner",
          "type": "address"
        }
      ],
      "name": "transferOwnership",
      "outputs": [],
      "stateMutability": "nonpayable",
      "type": "function"
    },
    {
      "inputs": [
        {
          "internalType": "address",
          "name": "_soul",
          "type": "address"
        },
        {
          "components": [
            {
              "internalType": "uint256[2]",
              "name": "a",
              "type": "uint256[2]"
            },
            {
              "internalType": "uint256[2][2]",
              "name": "b",
              "type": "uint256[2][2]"
            },
            {
              "internalType": "uint256[2]",
              "name": "c",
              "type": "uint256[2]"
            },
            {
              "internalType": "uint256[2]",
              "name": "input",
              "type": "uint256[2]"
            }
          ],
          "internalType": "struct zkVault.Proof",
          "name": "_soulData",
          "type": "tuple"
        }
      ],
      "name": "updateSBT",
      "outputs": [
        {
          "internalType": "bool",
          "name": "",
          "type": "bool"
        }
      ],
      "stateMutability": "nonpayable",
      "type": "function"
    },
    {
      "inputs": [
        {
          "internalType": "address",
          "name": "_soul",
          "type": "address"
        },
        {
          "internalType": "address",
          "name": "verifierAddress",
          "type": "address"
        }
      ],
      "name": "validateAttribute",
      "outputs": [
        {
          "internalType": "bool",
          "name": "",
          "type": "bool"
        }
      ],
      "stateMutability": "view",
      "type": "function"
    }
  ],
  "bytecode": "0x60806040523480156200001157600080fd5b506200003262000026620000ce60201b60201c565b620000d660201b60201c565b6040518060400160405280600781526020017f7a6b5661756c74000000000000000000000000000000000000000000000000008152506001908162000078919062000414565b506040518060400160405280600381526020017f5a4b56000000000000000000000000000000000000000000000000000000000081525060029081620000bf919062000414565b506000600381905550620004fb565b600033905090565b60008060009054906101000a900473ffffffffffffffffffffffffffffffffffffffff169050816000806101000a81548173ffffffffffffffffffffffffffffffffffffffff021916908373ffffffffffffffffffffffffffffffffffffffff1602179055508173ffffffffffffffffffffffffffffffffffffffff168173ffffffffffffffffffffffffffffffffffffffff167f8be0079c531659141344cd1fd0a4f28419497f9722a3daafe3b4186f6b6457e060405160405180910390a35050565b600081519050919050565b7f4e487b7100000000000000000000000000000000000000000000000000000000600052604160045260246000fd5b7f4e487b7100000000000000000000000000000000000000000000000000000000600052602260045260246000fd5b600060028204905060018216806200021c57607f821691505b602082108103620002325762000231620001d4565b5b50919050565b60008190508160005260206000209050919050565b60006020601f8301049050919050565b600082821b905092915050565b6000600883026200029c7fffffffffffffffffffffffffffffffffffffffffffffffffffffffffffffffff826200025d565b620002a886836200025d565b95508019841693508086168417925050509392505050565b6000819050919050565b6000819050919050565b6000620002f5620002ef620002e984620002c0565b620002ca565b620002c0565b9050919050565b6000819050919050565b6200031183620002d4565b620003296200032082620002fc565b8484546200026a565b825550505050565b600090565b6200034062000331565b6200034d81848462000306565b505050565b5b8181101562000375576200036960008262000336565b60018101905062000353565b5050565b601f821115620003c4576200038e8162000238565b62000399846200024d565b81016020851015620003a9578190505b620003c1620003b8856200024d565b83018262000352565b50505b505050565b600082821c905092915050565b6000620003e960001984600802620003c9565b1980831691505092915050565b6000620004048383620003d6565b9150826002028217905092915050565b6200041f826200019a565b67ffffffffffffffff8111156200043b576200043a620001a5565b5b62000447825462000203565b6200045482828562000379565b600060209050601f8311600181146200048c576000841562000477578287015190505b620004838582620003f6565b865550620004f3565b601f1984166200049c8662000238565b60005b82811015620004c6578489015182556001820191506020850194506020810190506200049f565b86831015620004e65784890151620004e2601f891682620003d6565b8355505b6001600288020188555050505b505050505050565b611f1d806200050b6000396000f3fe608060405234801561001057600080fd5b50600436106100f55760003560e01c806395d89b4111610097578063d28d885211610066578063d28d885214610265578063f2fde38b14610283578063f6a046991461029f578063fe7f8932146102bd576100f5565b806395d89b41146101c6578063b09f1266146101e4578063b33e50b014610202578063bdd7520214610235576100f5565b80635d00b731116100d35780635d00b73114610164578063715018a61461018257806389afcb441461018c5780638da5cb5b146101a8576100f5565b806306fdde03146100fa57806310e1abbf14610118578063350735ec14610148575b600080fd5b6101026102ed565b60405161010f91906113f5565b60405180910390f35b610132600480360381019061012d9190611720565b61037f565b60405161013f919061177c565b60405180910390f35b610162600480360381019061015d9190611797565b61051e565b005b61016c610685565b604051610179919061180f565b60405180910390f35b61018a61068b565b005b6101a660048036038101906101a1919061182a565b61069f565b005b6101b0610834565b6040516101bd9190611866565b60405180910390f35b6101ce61085d565b6040516101db91906113f5565b60405180910390f35b6101ec6108ef565b6040516101f991906113f5565b60405180910390f35b61021c6004803603810190610217919061182a565b61097d565b60405161022c9493929190611a2a565b60405180910390f35b61024f600480360381019061024a919061182a565b610c59565b60405161025c919061177c565b60405180910390f35b61026d610d2e565b60405161027a91906113f5565b60405180910390f35b61029d6004803603810190610298919061182a565b610dbc565b005b6102a7610e3f565b6040516102b4919061180f565b60405180910390f35b6102d760048036038101906102d29190611a71565b610e49565b6040516102e4919061177c565b60405180910390f35b6060600180546102fc90611ae0565b80601f016020809104026020016040519081016040528092919081815260200182805461032890611ae0565b80156103755780601f1061034a57610100808354040283529160200191610375565b820191906000526020600020905b81548152906001019060200180831161035857829003601f168201915b5050505050905090565b600082600073ffffffffffffffffffffffffffffffffffffffff168173ffffffffffffffffffffffffffffffffffffffff16036103f1576040517f08c379a00000000000000000000000000000000000000000000000000000000081526004016103e890611b5d565b60405180910390fd5b6103fa84610c59565b610439576040517f08c379a000000000000000000000000000000000000000000000000000000000815260040161043090611bc9565b60405180910390fd5b82600460008673ffffffffffffffffffffffffffffffffffffffff1673ffffffffffffffffffffffffffffffffffffffff168152602001908152602001600020600082015181600001906002610490929190611216565b506020820151816002019060026104a8929190611256565b506040820151816006019060026104c0929190611216565b506060820151816008019060026104d8929190611216565b509050507fd456720fd185d4060f5cea4d82775d2af95048c1e10f227ec35bae950a4be2a88460405161050b9190611866565b60405180910390a1600191505092915050565b61052733610c59565b15610567576040517f08c379a000000000000000000000000000000000000000000000000000000000815260040161055e90611c35565b60405180910390fd5b6000604051806080016040528086815260200185815260200184815260200183815250905080600460003373ffffffffffffffffffffffffffffffffffffffff1673ffffffffffffffffffffffffffffffffffffffff1681526020019081526020016000206000820151816000019060026105e3929190611216565b506020820151816002019060026105fb929190611256565b50604082015181600601906002610613929190611216565b5060608201518160080190600261062b929190611216565b509050506003600081548092919061064290611c84565b91905055507f3c3284d117c92d0b1699230960384e794dcba184cc48ff114fe4fed20c9b0565336040516106769190611866565b60405180910390a15050505050565b60035481565b6106936110cc565b61069d600061114a565b565b6106a76110cc565b80600073ffffffffffffffffffffffffffffffffffffffff168173ffffffffffffffffffffffffffffffffffffffff1603610717576040517f08c379a000000000000000000000000000000000000000000000000000000000815260040161070e90611b5d565b60405180910390fd5b61072082610c59565b61075f576040517f08c379a000000000000000000000000000000000000000000000000000000000815260040161075690611d18565b60405180910390fd5b600460008373ffffffffffffffffffffffffffffffffffffffff1673ffffffffffffffffffffffffffffffffffffffff168152602001908152602001600020600080820160006107af91906112a6565b6002820160006107bf91906112b4565b6006820160006107cf91906112a6565b6008820160006107df91906112a6565b5050600360008154809291906107f490611d38565b91905055507fe22de1457cb61fb61b60176bc4235a9abd19466126b46692bc14fc573f099249826040516108289190611866565b60405180910390a15050565b60008060009054906101000a900473ffffffffffffffffffffffffffffffffffffffff16905090565b60606002805461086c90611ae0565b80601f016020809104026020016040519081016040528092919081815260200182805461089890611ae0565b80156108e55780601f106108ba576101008083540402835291602001916108e5565b820191906000526020600020905b8154815290600101906020018083116108c857829003601f168201915b5050505050905090565b600280546108fc90611ae0565b80601f016020809104026020016040519081016040528092919081815260200182805461092890611ae0565b80156109755780601f1061094a57610100808354040283529160200191610975565b820191906000526020600020905b81548152906001019060200180831161095857829003601f168201915b505050505081565b6109856112d5565b61098d6112f7565b6109956112d5565b61099d6112d5565b84600073ffffffffffffffffffffffffffffffffffffffff168173ffffffffffffffffffffffffffffffffffffffff1603610a0d576040517f08c379a0000000000000000000000000000000000000000000000000000000008152600401610a0490611b5d565b60405180910390fd5b600460008773ffffffffffffffffffffffffffffffffffffffff1673ffffffffffffffffffffffffffffffffffffffff168152602001908152602001600020600001600460008873ffffffffffffffffffffffffffffffffffffffff1673ffffffffffffffffffffffffffffffffffffffff168152602001908152602001600020600201600460008973ffffffffffffffffffffffffffffffffffffffff1673ffffffffffffffffffffffffffffffffffffffff168152602001908152602001600020600601600460008a73ffffffffffffffffffffffffffffffffffffffff1673ffffffffffffffffffffffffffffffffffffffff16815260200190815260200160002060080183600280602002604051908101604052809291908260028015610b4d576020028201915b815481526020019060010190808311610b39575b5050505050935082600280602002604051908101604052809291906000905b82821015610bc557838260020201600280602002604051908101604052809291908260028015610bb1576020028201915b815481526020019060010190808311610b9d575b505050505081526020019060010190610b6c565b50505050925081600280602002604051908101604052809291908260028015610c03576020028201915b815481526020019060010190808311610bef575b5050505050915080600280602002604051908101604052809291908260028015610c42576020028201915b815481526020019060010190808311610c2e575b505050505090509450945094509450509193509193565b600081600073ffffffffffffffffffffffffffffffffffffffff168173ffffffffffffffffffffffffffffffffffffffff1603610ccb576040517f08c379a0000000000000000000000000000000000000000000000000000000008152600401610cc290611b5d565b60405180910390fd5b6000600460008573ffffffffffffffffffffffffffffffffffffffff1673ffffffffffffffffffffffffffffffffffffffff168152602001908152602001600020600801600060028110610d2257610d21611d61565b5b01541415915050919050565b60018054610d3b90611ae0565b80601f0160208091040260200160405190810160405280929190818152602001828054610d6790611ae0565b8015610db45780601f10610d8957610100808354040283529160200191610db4565b820191906000526020600020905b815481529060010190602001808311610d9757829003601f168201915b505050505081565b610dc46110cc565b600073ffffffffffffffffffffffffffffffffffffffff168173ffffffffffffffffffffffffffffffffffffffff1603610e33576040517f08c379a0000000000000000000000000000000000000000000000000000000008152600401610e2a90611e02565b60405180910390fd5b610e3c8161114a565b50565b6000600354905090565b6000610e5483610c59565b610e93576040517f08c379a0000000000000000000000000000000000000000000000000000000008152600401610e8a90611bc9565b60405180910390fd5b6000600460008573ffffffffffffffffffffffffffffffffffffffff1673ffffffffffffffffffffffffffffffffffffffff16815260200190815260200160002060405180608001604052908160008201600280602002604051908101604052809291908260028015610f1b576020028201915b815481526020019060010190808311610f07575b5050505050815260200160028201600280602002604051908101604052809291906000905b82821015610f9957838260020201600280602002604051908101604052809291908260028015610f85576020028201915b815481526020019060010190808311610f71575b505050505081526020019060010190610f40565b50505050815260200160068201600280602002604051908101604052809291908260028015610fdd576020028201915b815481526020019060010190808311610fc9575b5050505050815260200160088201600280602002604051908101604052809291908260028015611022576020028201915b81548152602001906001019080831161100e575b505050505081525050905060008390508073ffffffffffffffffffffffffffffffffffffffff1663f5c9d69e83600001518460200151856040015186606001516040518563ffffffff1660e01b81526004016110819493929190611a2a565b602060405180830381865afa15801561109e573d6000803e3d6000fd5b505050506040513d601f19601f820116820180604052508101906110c29190611e4e565b9250505092915050565b6110d461120e565b73ffffffffffffffffffffffffffffffffffffffff166110f2610834565b73ffffffffffffffffffffffffffffffffffffffff1614611148576040517f08c379a000000000000000000000000000000000000000000000000000000000815260040161113f90611ec7565b60405180910390fd5b565b60008060009054906101000a900473ffffffffffffffffffffffffffffffffffffffff169050816000806101000a81548173ffffffffffffffffffffffffffffffffffffffff021916908373ffffffffffffffffffffffffffffffffffffffff1602179055508173ffffffffffffffffffffffffffffffffffffffff168173ffffffffffffffffffffffffffffffffffffffff167f8be0079c531659141344cd1fd0a4f28419497f9722a3daafe3b4186f6b6457e060405160405180910390a35050565b600033905090565b8260028101928215611245579160200282015b82811115611244578251825591602001919060010190611229565b5b5090506112529190611324565b5090565b82600280028101928215611295579160200282015b8281111561129457825182906002611284929190611216565b509160200191906002019061126b565b5b5090506112a29190611341565b5090565b506000815560010160009055565b50600081816112c391906112a6565b5060020160006112d391906112a6565b565b6040518060400160405280600290602082028036833780820191505090505090565b60405180604001604052806002905b61130e6112d5565b8152602001906001900390816113065790505090565b5b8082111561133d576000816000905550600101611325565b5090565b5b80821115611361576000818161135891906112a6565b50600201611342565b5090565b600081519050919050565b600082825260208201905092915050565b60005b8381101561139f578082015181840152602081019050611384565b60008484015250505050565b6000601f19601f8301169050919050565b60006113c782611365565b6113d18185611370565b93506113e1818560208601611381565b6113ea816113ab565b840191505092915050565b6000602082019050818103600083015261140f81846113bc565b905092915050565b6000604051905090565b600080fd5b600073ffffffffffffffffffffffffffffffffffffffff82169050919050565b600061145182611426565b9050919050565b61146181611446565b811461146c57600080fd5b50565b60008135905061147e81611458565b92915050565b600080fd5b7f4e487b7100000000000000000000000000000000000000000000000000000000600052604160045260246000fd5b6114c1826113ab565b810181811067ffffffffffffffff821117156114e0576114df611489565b5b80604052505050565b60006114f3611417565b90506114ff82826114b8565b919050565b600080fd5b600067ffffffffffffffff82111561152457611523611489565b5b602082029050919050565b600080fd5b6000819050919050565b61154781611534565b811461155257600080fd5b50565b6000813590506115648161153e565b92915050565b600061157d61157884611509565b6114e9565b905080602084028301858111156115975761159661152f565b5b835b818110156115c057806115ac8882611555565b845260208401935050602081019050611599565b5050509392505050565b600082601f8301126115df576115de611504565b5b60026115ec84828561156a565b91505092915050565b600067ffffffffffffffff8211156116105761160f611489565b5b602082029050919050565b600061162e611629846115f5565b6114e9565b905080604084028301858111156116485761164761152f565b5b835b81811015611671578061165d88826115ca565b84526020840193505060408101905061164a565b5050509392505050565b600082601f8301126116905761168f611504565b5b600261169d84828561161b565b91505092915050565b600061014082840312156116bd576116bc611484565b5b6116c760806114e9565b905060006116d7848285016115ca565b60008301525060406116eb8482850161167b565b60208301525060c06116ff848285016115ca565b604083015250610100611714848285016115ca565b60608301525092915050565b600080610160838503121561173857611737611421565b5b60006117468582860161146f565b9250506020611757858286016116a6565b9150509250929050565b60008115159050919050565b61177681611761565b82525050565b6000602082019050611791600083018461176d565b92915050565b60008060008061014085870312156117b2576117b1611421565b5b60006117c0878288016115ca565b94505060406117d18782880161167b565b93505060c06117e2878288016115ca565b9250506101006117f4878288016115ca565b91505092959194509250565b61180981611534565b82525050565b60006020820190506118246000830184611800565b92915050565b6000602082840312156118405761183f611421565b5b600061184e8482850161146f565b91505092915050565b61186081611446565b82525050565b600060208201905061187b6000830184611857565b92915050565b600060029050919050565b600081905092915050565b6000819050919050565b6118aa81611534565b82525050565b60006118bc83836118a1565b60208301905092915050565b6000602082019050919050565b6118de81611881565b6118e8818461188c565b92506118f382611897565b8060005b8381101561192457815161190b87826118b0565b9650611916836118c8565b9250506001810190506118f7565b505050505050565b600060029050919050565b600081905092915050565b6000819050919050565b600081905092915050565b61196081611881565b61196a818461194c565b925061197582611897565b8060005b838110156119a657815161198d87826118b0565b9650611998836118c8565b925050600181019050611979565b505050505050565b60006119ba8383611957565b60408301905092915050565b6000602082019050919050565b6119dc8161192c565b6119e68184611937565b92506119f182611942565b8060005b83811015611a22578151611a0987826119ae565b9650611a14836119c6565b9250506001810190506119f5565b505050505050565b600061014082019050611a4060008301876118d5565b611a4d60408301866119d3565b611a5a60c08301856118d5565b611a686101008301846118d5565b95945050505050565b60008060408385031215611a8857611a87611421565b5b6000611a968582860161146f565b9250506020611aa78582860161146f565b9150509250929050565b7f4e487b7100000000000000000000000000000000000000000000000000000000600052602260045260246000fd5b60006002820490506001821680611af857607f821691505b602082108103611b0b57611b0a611ab1565b5b50919050565b7f4e6f742076616c69642061646472657373000000000000000000000000000000600082015250565b6000611b47601183611370565b9150611b5282611b11565b602082019050919050565b60006020820190508181036000830152611b7681611b3a565b9050919050565b7f536f756c20646f6573206e6f7420657869737400000000000000000000000000600082015250565b6000611bb3601383611370565b9150611bbe82611b7d565b602082019050919050565b60006020820190508181036000830152611be281611ba6565b9050919050565b7f536f756c20616c72656164792065786973747300000000000000000000000000600082015250565b6000611c1f601383611370565b9150611c2a82611be9565b602082019050919050565b60006020820190508181036000830152611c4e81611c12565b9050919050565b7f4e487b7100000000000000000000000000000000000000000000000000000000600052601160045260246000fd5b6000611c8f82611534565b91507fffffffffffffffffffffffffffffffffffffffffffffffffffffffffffffffff8203611cc157611cc0611c55565b5b600182019050919050565b7f536f756c20646f6573206e6f7420657869737473000000000000000000000000600082015250565b6000611d02601483611370565b9150611d0d82611ccc565b602082019050919050565b60006020820190508181036000830152611d3181611cf5565b9050919050565b6000611d4382611534565b915060008203611d5657611d55611c55565b5b600182039050919050565b7f4e487b7100000000000000000000000000000000000000000000000000000000600052603260045260246000fd5b7f4f776e61626c653a206e6577206f776e657220697320746865207a65726f206160008201527f6464726573730000000000000000000000000000000000000000000000000000602082015250565b6000611dec602683611370565b9150611df782611d90565b604082019050919050565b60006020820190508181036000830152611e1b81611ddf565b9050919050565b611e2b81611761565b8114611e3657600080fd5b50565b600081519050611e4881611e22565b92915050565b600060208284031215611e6457611e63611421565b5b6000611e7284828501611e39565b91505092915050565b7f4f776e61626c653a2063616c6c6572206973206e6f7420746865206f776e6572600082015250565b6000611eb1602083611370565b9150611ebc82611e7b565b602082019050919050565b60006020820190508181036000830152611ee081611ea4565b905091905056fea264697066735822122090b9b6efea7c9261e9724e176b6a06a69607620eae0cb5fbfb9bca5f9a0e442d64736f6c63430008120033",
  "linkReferences": {},
  "deployedLinkReferences": {}
}